{
  "abi": [
    {
      "inputs": [],
      "stateMutability": "nonpayable",
      "type": "constructor"
    },
    {
      "anonymous": false,
      "inputs": [
        {
          "indexed": true,
          "internalType": "address",
          "name": "owner",
          "type": "address"
        },
        {
          "indexed": true,
          "internalType": "address",
          "name": "spender",
          "type": "address"
        },
        {
          "indexed": false,
          "internalType": "uint256",
          "name": "amount",
          "type": "uint256"
        }
      ],
      "name": "Approval",
      "type": "event"
    },
    {
      "anonymous": false,
      "inputs": [
        {
          "indexed": true,
          "internalType": "address",
          "name": "from",
          "type": "address"
        },
        {
          "indexed": true,
          "internalType": "address",
          "name": "to",
          "type": "address"
        },
        {
          "indexed": false,
          "internalType": "uint256",
          "name": "amount",
          "type": "uint256"
        }
      ],
      "name": "Transfer",
      "type": "event"
    },
    {
      "anonymous": false,
      "inputs": [
        {
          "indexed": true,
          "internalType": "address",
          "name": "caller",
          "type": "address"
        },
        {
          "indexed": true,
          "internalType": "address",
          "name": "recipient",
          "type": "address"
        },
        {
          "indexed": false,
          "internalType": "uint256",
          "name": "value",
          "type": "uint256"
        }
      ],
      "name": "Withdrawal",
      "type": "event"
    },
    {
      "inputs": [],
      "name": "PRICE",
      "outputs": [
        {
          "internalType": "uint256",
          "name": "",
          "type": "uint256"
        }
      ],
      "stateMutability": "view",
      "type": "function"
    },
    {
      "inputs": [],
      "name": "PRICE_MULTIPLIER",
      "outputs": [
        {
          "internalType": "uint256",
          "name": "",
          "type": "uint256"
        }
      ],
      "stateMutability": "view",
      "type": "function"
    },
    {
      "inputs": [
        {
          "internalType": "address",
          "name": "",
          "type": "address"
        },
        {
          "internalType": "address",
          "name": "",
          "type": "address"
        }
      ],
      "name": "allowances",
      "outputs": [
        {
          "internalType": "uint256",
          "name": "",
          "type": "uint256"
        }
      ],
      "stateMutability": "view",
      "type": "function"
    },
    {
      "inputs": [
        {
          "internalType": "address",
          "name": "spender",
          "type": "address"
        },
        {
          "internalType": "uint256",
          "name": "amount",
          "type": "uint256"
        }
      ],
      "name": "approve",
      "outputs": [
        {
          "internalType": "bool",
          "name": "",
          "type": "bool"
        }
      ],
      "stateMutability": "nonpayable",
      "type": "function"
    },
    {
      "inputs": [
        {
          "internalType": "address",
          "name": "usr",
          "type": "address"
        }
      ],
      "name": "balanceOf",
      "outputs": [
        {
          "internalType": "uint256",
          "name": "",
          "type": "uint256"
        }
      ],
      "stateMutability": "view",
      "type": "function"
    },
    {
      "inputs": [
        {
          "internalType": "address",
          "name": "",
          "type": "address"
        }
      ],
      "name": "balances",
      "outputs": [
        {
          "internalType": "uint256",
          "name": "",
          "type": "uint256"
        }
      ],
      "stateMutability": "view",
      "type": "function"
    },
    {
      "inputs": [],
      "name": "decimals",
      "outputs": [
        {
          "internalType": "uint8",
          "name": "",
          "type": "uint8"
        }
      ],
      "stateMutability": "view",
      "type": "function"
    },
    {
      "inputs": [],
      "name": "mint",
      "outputs": [
        {
          "internalType": "uint256",
          "name": "amount",
          "type": "uint256"
        }
      ],
      "stateMutability": "payable",
      "type": "function"
    },
    {
      "inputs": [],
      "name": "name",
      "outputs": [
        {
          "internalType": "string",
          "name": "",
          "type": "string"
        }
      ],
      "stateMutability": "view",
      "type": "function"
    },
    {
      "inputs": [],
      "name": "owner",
      "outputs": [
        {
          "internalType": "address payable",
          "name": "",
          "type": "address"
        }
      ],
      "stateMutability": "view",
      "type": "function"
    },
    {
      "inputs": [],
      "name": "symbol",
      "outputs": [
        {
          "internalType": "string",
          "name": "",
          "type": "string"
        }
      ],
      "stateMutability": "view",
      "type": "function"
    },
    {
      "inputs": [],
      "name": "totalSupply",
      "outputs": [
        {
          "internalType": "uint256",
          "name": "",
          "type": "uint256"
        }
      ],
      "stateMutability": "view",
      "type": "function"
    },
    {
      "inputs": [
        {
          "internalType": "address",
          "name": "to",
          "type": "address"
        },
        {
          "internalType": "uint256",
          "name": "amount",
          "type": "uint256"
        }
      ],
      "name": "transfer",
      "outputs": [
        {
          "internalType": "bool",
          "name": "",
          "type": "bool"
        }
      ],
      "stateMutability": "nonpayable",
      "type": "function"
    },
    {
      "inputs": [
        {
          "internalType": "address",
          "name": "from",
          "type": "address"
        },
        {
          "internalType": "address",
          "name": "to",
          "type": "address"
        },
        {
          "internalType": "uint256",
          "name": "amount",
          "type": "uint256"
        }
      ],
      "name": "transferFrom",
      "outputs": [
        {
          "internalType": "bool",
          "name": "",
          "type": "bool"
        }
      ],
      "stateMutability": "nonpayable",
      "type": "function"
    },
    {
      "inputs": [],
      "name": "withdraw",
      "outputs": [],
      "stateMutability": "nonpayable",
      "type": "function"
    }
  ],
  "bytecode": "60a060405234801561001057600080fd5b503360805260805161089b610045600039600081816102d8015281816105130152818161054c01526105a6015261089b6000f3fe6080604052600436106100e85760003560e01c8063313ce5671161008a5780638d859f3e116100595780638d859f3e146102a95780638da5cb5b146102c657806395d89b4114610312578063a9059cbb1461034457600080fd5b8063313ce567146101fd5780633ccfd60b1461022457806355b6ed5c1461023b57806370a082311461027357600080fd5b80631249c58b116100c65780631249c58b1461019257806318160ddd1461019a57806323b872dd146101b057806327e235e3146101d057600080fd5b806306fdde03146100ed578063095ea7b314610138578063113990b814610168575b600080fd5b3480156100f957600080fd5b506101226040518060400160405280600981526020016845746850726167756560b81b81525081565b60405161012f91906106b3565b60405180910390f35b34801561014457600080fd5b50610158610153366004610724565b610364565b604051901515815260200161012f565b34801561017457600080fd5b50610184670de0b6b3a764000081565b60405190815260200161012f565b6101846103d0565b3480156101a657600080fd5b5061018460005481565b3480156101bc57600080fd5b506101586101cb36600461074e565b61044b565b3480156101dc57600080fd5b506101846101eb36600461078a565b60016020526000908152604090205481565b34801561020957600080fd5b50610212601281565b60405160ff909116815260200161012f565b34801561023057600080fd5b50610239610508565b005b34801561024757600080fd5b506101846102563660046107ac565b600260209081526000928352604080842090915290825290205481565b34801561027f57600080fd5b5061018461028e36600461078a565b6001600160a01b031660009081526001602052604090205490565b3480156102b557600080fd5b5061018468056bc75e2d6310000081565b3480156102d257600080fd5b506102fa7f000000000000000000000000000000000000000000000000000000000000000081565b6040516001600160a01b03909116815260200161012f565b34801561031e57600080fd5b506101226040518060400160405280600681526020016545544850524760d01b81525081565b34801561035057600080fd5b5061015861035f366004610724565b6105f9565b3360008181526002602090815260408083206001600160a01b038716808552925280832085905551919290917f8c5be1e5ebec7d5bd14f71427d1e84f3dd0314c0f7b2291e5b200ac8c7c3b925906103bf9086815260200190565b60405180910390a350600192915050565b600034670de0b6b3a76400006103ef68056bc75e2d63100000836107f5565b6103f99190610814565b3360009081526001602052604081208054929450849290919061041d908490610836565b92505081905550816000808282546104359190610836565b90915550610447905060003384610661565b5090565b6001600160a01b038316600090815260016020526040812054819061047190849061084e565b6001600160a01b03851660009081526001602052604081205491925090610499908590610836565b6001600160a01b038088166000818152600160209081526040808320889055938a16825283822085905591815260028252828120338252909152908120805492935086929091906104eb90849061084e565b909155506104fc9050868686610661565b50600195945050505050565b336001600160a01b037f0000000000000000000000000000000000000000000000000000000000000000161461053d57600080fd5b60405147906001600160a01b037f0000000000000000000000000000000000000000000000000000000000000000169082156108fc029083906000818181858888f19350505050158015610595573d6000803e3d6000fd5b506040518181526001600160a01b037f0000000000000000000000000000000000000000000000000000000000000000169033907f2717ead6b9200dd235aad468c9809ea400fe33ac69b5bfaa6d3e90fc922b63989060200160405180910390a350565b3360009081526001602052604081208054839190839061061a90849061084e565b90915550506001600160a01b03831660009081526001602052604081208054849290610647908490610836565b909155506106589050338484610661565b50600192915050565b816001600160a01b0316836001600160a01b03167fddf252ad1be2c89b69c2b068fc378daa952ba7f163c4a11628f55a4df523b3ef836040516106a691815260200190565b60405180910390a3505050565b600060208083528351808285015260005b818110156106e0578581018301518582016040015282016106c4565b818111156106f2576000604083870101525b50601f01601f1916929092016040019392505050565b80356001600160a01b038116811461071f57600080fd5b919050565b6000806040838503121561073757600080fd5b61074083610708565b946020939093013593505050565b60008060006060848603121561076357600080fd5b61076c84610708565b925061077a60208501610708565b9150604084013590509250925092565b60006020828403121561079c57600080fd5b6107a582610708565b9392505050565b600080604083850312156107bf57600080fd5b6107c883610708565b91506107d660208401610708565b90509250929050565b634e487b7160e01b600052601160045260246000fd5b600081600019048311821515161561080f5761080f6107df565b500290565b60008261083157634e487b7160e01b600052601260045260246000fd5b500490565b60008219821115610849576108496107df565b500190565b600082821015610860576108606107df565b50039056fea26469706673582212208eaa0b488e8e72c06e7d5b1876a0e96269d657174485817313c61b25a5ced31864736f6c634300080b0033",
  "bytecodeSha1": "97ff4a98c0bc975c074ea59d5cee36bf25f8f7a4",
  "compiler": {
    "evm_version": "istanbul",
    "optimizer": {
      "enabled": true,
      "runs": 200
    },
    "version": "0.8.11+commit.d7f03943"
  },
  "contractName": "Token",
  "language": "Solidity",
  "natspec": {
    "kind": "dev",
    "methods": {},
    "notice": "Implements [EIP20](https://eips.ethereum.org/EIPS/eip-20). Not safe! Has bugs on purpose. Does _not_ implement (decrease|increase)Allowance.",
    "version": 1
  },
  "opcodes": "PUSH1 0x80 PUSH1 0x40 MSTORE PUSH1 0x4 CALLDATASIZE LT PUSH2 0xE8 JUMPI PUSH1 0x0 CALLDATALOAD PUSH1 0xE0 SHR DUP1 PUSH4 0x313CE567 GT PUSH2 0x8A JUMPI DUP1 PUSH4 0x8D859F3E GT PUSH2 0x59 JUMPI DUP1 PUSH4 0x8D859F3E EQ PUSH2 0x2A9 JUMPI DUP1 PUSH4 0x8DA5CB5B EQ PUSH2 0x2C6 JUMPI DUP1 PUSH4 0x95D89B41 EQ PUSH2 0x312 JUMPI DUP1 PUSH4 0xA9059CBB EQ PUSH2 0x344 JUMPI PUSH1 0x0 DUP1 REVERT JUMPDEST DUP1 PUSH4 0x313CE567 EQ PUSH2 0x1FD JUMPI DUP1 PUSH4 0x3CCFD60B EQ PUSH2 0x224 JUMPI DUP1 PUSH4 0x55B6ED5C EQ PUSH2 0x23B JUMPI DUP1 PUSH4 0x70A08231 EQ PUSH2 0x273 JUMPI PUSH1 0x0 DUP1 REVERT JUMPDEST DUP1 PUSH4 0x1249C58B GT PUSH2 0xC6 JUMPI DUP1 PUSH4 0x1249C58B EQ PUSH2 0x192 JUMPI DUP1 PUSH4 0x18160DDD EQ PUSH2 0x19A JUMPI DUP1 PUSH4 0x23B872DD EQ PUSH2 0x1B0 JUMPI DUP1 PUSH4 0x27E235E3 EQ PUSH2 0x1D0 JUMPI PUSH1 0x0 DUP1 REVERT JUMPDEST DUP1 PUSH4 0x6FDDE03 EQ PUSH2 0xED JUMPI DUP1 PUSH4 0x95EA7B3 EQ PUSH2 0x138 JUMPI DUP1 PUSH4 0x113990B8 EQ PUSH2 0x168 JUMPI JUMPDEST PUSH1 0x0 DUP1 REVERT JUMPDEST CALLVALUE DUP1 ISZERO PUSH2 0xF9 JUMPI PUSH1 0x0 DUP1 REVERT JUMPDEST POP PUSH2 0x122 PUSH1 0x40 MLOAD DUP1 PUSH1 0x40 ADD PUSH1 0x40 MSTORE DUP1 PUSH1 0x9 DUP2 MSTORE PUSH1 0x20 ADD PUSH9 0x457468507261677565 PUSH1 0xB8 SHL DUP2 MSTORE POP DUP2 JUMP JUMPDEST PUSH1 0x40 MLOAD PUSH2 0x12F SWAP2 SWAP1 PUSH2 0x6B3 JUMP JUMPDEST PUSH1 0x40 MLOAD DUP1 SWAP2 SUB SWAP1 RETURN JUMPDEST CALLVALUE DUP1 ISZERO PUSH2 0x144 JUMPI PUSH1 0x0 DUP1 REVERT JUMPDEST POP PUSH2 0x158 PUSH2 0x153 CALLDATASIZE PUSH1 0x4 PUSH2 0x724 JUMP JUMPDEST PUSH2 0x364 JUMP JUMPDEST PUSH1 0x40 MLOAD SWAP1 ISZERO ISZERO DUP2 MSTORE PUSH1 0x20 ADD PUSH2 0x12F JUMP JUMPDEST CALLVALUE DUP1 ISZERO PUSH2 0x174 JUMPI PUSH1 0x0 DUP1 REVERT JUMPDEST POP PUSH2 0x184 PUSH8 0xDE0B6B3A7640000 DUP2 JUMP JUMPDEST PUSH1 0x40 MLOAD SWAP1 DUP2 MSTORE PUSH1 0x20 ADD PUSH2 0x12F JUMP JUMPDEST PUSH2 0x184 PUSH2 0x3D0 JUMP JUMPDEST CALLVALUE DUP1 ISZERO PUSH2 0x1A6 JUMPI PUSH1 0x0 DUP1 REVERT JUMPDEST POP PUSH2 0x184 PUSH1 0x0 SLOAD DUP2 JUMP JUMPDEST CALLVALUE DUP1 ISZERO PUSH2 0x1BC JUMPI PUSH1 0x0 DUP1 REVERT JUMPDEST POP PUSH2 0x158 PUSH2 0x1CB CALLDATASIZE PUSH1 0x4 PUSH2 0x74E JUMP JUMPDEST PUSH2 0x44B JUMP JUMPDEST CALLVALUE DUP1 ISZERO PUSH2 0x1DC JUMPI PUSH1 0x0 DUP1 REVERT JUMPDEST POP PUSH2 0x184 PUSH2 0x1EB CALLDATASIZE PUSH1 0x4 PUSH2 0x78A JUMP JUMPDEST PUSH1 0x1 PUSH1 0x20 MSTORE PUSH1 0x0 SWAP1 DUP2 MSTORE PUSH1 0x40 SWAP1 KECCAK256 SLOAD DUP2 JUMP JUMPDEST CALLVALUE DUP1 ISZERO PUSH2 0x209 JUMPI PUSH1 0x0 DUP1 REVERT JUMPDEST POP PUSH2 0x212 PUSH1 0x12 DUP2 JUMP JUMPDEST PUSH1 0x40 MLOAD PUSH1 0xFF SWAP1 SWAP2 AND DUP2 MSTORE PUSH1 0x20 ADD PUSH2 0x12F JUMP JUMPDEST CALLVALUE DUP1 ISZERO PUSH2 0x230 JUMPI PUSH1 0x0 DUP1 REVERT JUMPDEST POP PUSH2 0x239 PUSH2 0x508 JUMP JUMPDEST STOP JUMPDEST CALLVALUE DUP1 ISZERO PUSH2 0x247 JUMPI PUSH1 0x0 DUP1 REVERT JUMPDEST POP PUSH2 0x184 PUSH2 0x256 CALLDATASIZE PUSH1 0x4 PUSH2 0x7AC JUMP JUMPDEST PUSH1 0x2 PUSH1 0x20 SWAP1 DUP2 MSTORE PUSH1 0x0 SWAP3 DUP4 MSTORE PUSH1 0x40 DUP1 DUP5 KECCAK256 SWAP1 SWAP2 MSTORE SWAP1 DUP3 MSTORE SWAP1 KECCAK256 SLOAD DUP2 JUMP JUMPDEST CALLVALUE DUP1 ISZERO PUSH2 0x27F JUMPI PUSH1 0x0 DUP1 REVERT JUMPDEST POP PUSH2 0x184 PUSH2 0x28E CALLDATASIZE PUSH1 0x4 PUSH2 0x78A JUMP JUMPDEST PUSH1 0x1 PUSH1 0x1 PUSH1 0xA0 SHL SUB AND PUSH1 0x0 SWAP1 DUP2 MSTORE PUSH1 0x1 PUSH1 0x20 MSTORE PUSH1 0x40 SWAP1 KECCAK256 SLOAD SWAP1 JUMP JUMPDEST CALLVALUE DUP1 ISZERO PUSH2 0x2B5 JUMPI PUSH1 0x0 DUP1 REVERT JUMPDEST POP PUSH2 0x184 PUSH9 0x56BC75E2D63100000 DUP2 JUMP JUMPDEST CALLVALUE DUP1 ISZERO PUSH2 0x2D2 JUMPI PUSH1 0x0 DUP1 REVERT JUMPDEST POP PUSH2 0x2FA PUSH32 0x0 DUP2 JUMP JUMPDEST PUSH1 0x40 MLOAD PUSH1 0x1 PUSH1 0x1 PUSH1 0xA0 SHL SUB SWAP1 SWAP2 AND DUP2 MSTORE PUSH1 0x20 ADD PUSH2 0x12F JUMP JUMPDEST CALLVALUE DUP1 ISZERO PUSH2 0x31E JUMPI PUSH1 0x0 DUP1 REVERT JUMPDEST POP PUSH2 0x122 PUSH1 0x40 MLOAD DUP1 PUSH1 0x40 ADD PUSH1 0x40 MSTORE DUP1 PUSH1 0x6 DUP2 MSTORE PUSH1 0x20 ADD PUSH6 0x455448505247 PUSH1 0xD0 SHL DUP2 MSTORE POP DUP2 JUMP JUMPDEST CALLVALUE DUP1 ISZERO PUSH2 0x350 JUMPI PUSH1 0x0 DUP1 REVERT JUMPDEST POP PUSH2 0x158 PUSH2 0x35F CALLDATASIZE PUSH1 0x4 PUSH2 0x724 JUMP JUMPDEST PUSH2 0x5F9 JUMP JUMPDEST CALLER PUSH1 0x0 DUP2 DUP2 MSTORE PUSH1 0x2 PUSH1 0x20 SWAP1 DUP2 MSTORE PUSH1 0x40 DUP1 DUP4 KECCAK256 PUSH1 0x1 PUSH1 0x1 PUSH1 0xA0 SHL SUB DUP8 AND DUP1 DUP6 MSTORE SWAP3 MSTORE DUP1 DUP4 KECCAK256 DUP6 SWAP1 SSTORE MLOAD SWAP2 SWAP3 SWAP1 SWAP2 PUSH32 0x8C5BE1E5EBEC7D5BD14F71427D1E84F3DD0314C0F7B2291E5B200AC8C7C3B925 SWAP1 PUSH2 0x3BF SWAP1 DUP7 DUP2 MSTORE PUSH1 0x20 ADD SWAP1 JUMP JUMPDEST PUSH1 0x40 MLOAD DUP1 SWAP2 SUB SWAP1 LOG3 POP PUSH1 0x1 SWAP3 SWAP2 POP POP JUMP JUMPDEST PUSH1 0x0 CALLVALUE PUSH8 0xDE0B6B3A7640000 PUSH2 0x3EF PUSH9 0x56BC75E2D63100000 DUP4 PUSH2 0x7F5 JUMP JUMPDEST PUSH2 0x3F9 SWAP2 SWAP1 PUSH2 0x814 JUMP JUMPDEST CALLER PUSH1 0x0 SWAP1 DUP2 MSTORE PUSH1 0x1 PUSH1 0x20 MSTORE PUSH1 0x40 DUP2 KECCAK256 DUP1 SLOAD SWAP3 SWAP5 POP DUP5 SWAP3 SWAP1 SWAP2 SWAP1 PUSH2 0x41D SWAP1 DUP5 SWAP1 PUSH2 0x836 JUMP JUMPDEST SWAP3 POP POP DUP2 SWAP1 SSTORE POP DUP2 PUSH1 0x0 DUP1 DUP3 DUP3 SLOAD PUSH2 0x435 SWAP2 SWAP1 PUSH2 0x836 JUMP JUMPDEST SWAP1 SWAP2 SSTORE POP PUSH2 0x447 SWAP1 POP PUSH1 0x0 CALLER DUP5 PUSH2 0x661 JUMP JUMPDEST POP SWAP1 JUMP JUMPDEST PUSH1 0x1 PUSH1 0x1 PUSH1 0xA0 SHL SUB DUP4 AND PUSH1 0x0 SWAP1 DUP2 MSTORE PUSH1 0x1 PUSH1 0x20 MSTORE PUSH1 0x40 DUP2 KECCAK256 SLOAD DUP2 SWAP1 PUSH2 0x471 SWAP1 DUP5 SWAP1 PUSH2 0x84E JUMP JUMPDEST PUSH1 0x1 PUSH1 0x1 PUSH1 0xA0 SHL SUB DUP6 AND PUSH1 0x0 SWAP1 DUP2 MSTORE PUSH1 0x1 PUSH1 0x20 MSTORE PUSH1 0x40 DUP2 KECCAK256 SLOAD SWAP2 SWAP3 POP SWAP1 PUSH2 0x499 SWAP1 DUP6 SWAP1 PUSH2 0x836 JUMP JUMPDEST PUSH1 0x1 PUSH1 0x1 PUSH1 0xA0 SHL SUB DUP1 DUP9 AND PUSH1 0x0 DUP2 DUP2 MSTORE PUSH1 0x1 PUSH1 0x20 SWAP1 DUP2 MSTORE PUSH1 0x40 DUP1 DUP4 KECCAK256 DUP9 SWAP1 SSTORE SWAP4 DUP11 AND DUP3 MSTORE DUP4 DUP3 KECCAK256 DUP6 SWAP1 SSTORE SWAP2 DUP2 MSTORE PUSH1 0x2 DUP3 MSTORE DUP3 DUP2 KECCAK256 CALLER DUP3 MSTORE SWAP1 SWAP2 MSTORE SWAP1 DUP2 KECCAK256 DUP1 SLOAD SWAP3 SWAP4 POP DUP7 SWAP3 SWAP1 SWAP2 SWAP1 PUSH2 0x4EB SWAP1 DUP5 SWAP1 PUSH2 0x84E JUMP JUMPDEST SWAP1 SWAP2 SSTORE POP PUSH2 0x4FC SWAP1 POP DUP7 DUP7 DUP7 PUSH2 0x661 JUMP JUMPDEST POP PUSH1 0x1 SWAP6 SWAP5 POP POP POP POP POP JUMP JUMPDEST CALLER PUSH1 0x1 PUSH1 0x1 PUSH1 0xA0 SHL SUB PUSH32 0x0 AND EQ PUSH2 0x53D JUMPI PUSH1 0x0 DUP1 REVERT JUMPDEST PUSH1 0x40 MLOAD SELFBALANCE SWAP1 PUSH1 0x1 PUSH1 0x1 PUSH1 0xA0 SHL SUB PUSH32 0x0 AND SWAP1 DUP3 ISZERO PUSH2 0x8FC MUL SWAP1 DUP4 SWAP1 PUSH1 0x0 DUP2 DUP2 DUP2 DUP6 DUP9 DUP9 CALL SWAP4 POP POP POP POP ISZERO DUP1 ISZERO PUSH2 0x595 JUMPI RETURNDATASIZE PUSH1 0x0 DUP1 RETURNDATACOPY RETURNDATASIZE PUSH1 0x0 REVERT JUMPDEST POP PUSH1 0x40 MLOAD DUP2 DUP2 MSTORE PUSH1 0x1 PUSH1 0x1 PUSH1 0xA0 SHL SUB PUSH32 0x0 AND SWAP1 CALLER SWAP1 PUSH32 0x2717EAD6B9200DD235AAD468C9809EA400FE33AC69B5BFAA6D3E90FC922B6398 SWAP1 PUSH1 0x20 ADD PUSH1 0x40 MLOAD DUP1 SWAP2 SUB SWAP1 LOG3 POP JUMP JUMPDEST CALLER PUSH1 0x0 SWAP1 DUP2 MSTORE PUSH1 0x1 PUSH1 0x20 MSTORE PUSH1 0x40 DUP2 KECCAK256 DUP1 SLOAD DUP4 SWAP2 SWAP1 DUP4 SWAP1 PUSH2 0x61A SWAP1 DUP5 SWAP1 PUSH2 0x84E JUMP JUMPDEST SWAP1 SWAP2 SSTORE POP POP PUSH1 0x1 PUSH1 0x1 PUSH1 0xA0 SHL SUB DUP4 AND PUSH1 0x0 SWAP1 DUP2 MSTORE PUSH1 0x1 PUSH1 0x20 MSTORE PUSH1 0x40 DUP2 KECCAK256 DUP1 SLOAD DUP5 SWAP3 SWAP1 PUSH2 0x647 SWAP1 DUP5 SWAP1 PUSH2 0x836 JUMP JUMPDEST SWAP1 SWAP2 SSTORE POP PUSH2 0x658 SWAP1 POP CALLER DUP5 DUP5 PUSH2 0x661 JUMP JUMPDEST POP PUSH1 0x1 SWAP3 SWAP2 POP POP JUMP JUMPDEST DUP2 PUSH1 0x1 PUSH1 0x1 PUSH1 0xA0 SHL SUB AND DUP4 PUSH1 0x1 PUSH1 0x1 PUSH1 0xA0 SHL SUB AND PUSH32 0xDDF252AD1BE2C89B69C2B068FC378DAA952BA7F163C4A11628F55A4DF523B3EF DUP4 PUSH1 0x40 MLOAD PUSH2 0x6A6 SWAP2 DUP2 MSTORE PUSH1 0x20 ADD SWAP1 JUMP JUMPDEST PUSH1 0x40 MLOAD DUP1 SWAP2 SUB SWAP1 LOG3 POP POP POP JUMP JUMPDEST PUSH1 0x0 PUSH1 0x20 DUP1 DUP4 MSTORE DUP4 MLOAD DUP1 DUP3 DUP6 ADD MSTORE PUSH1 0x0 JUMPDEST DUP2 DUP2 LT ISZERO PUSH2 0x6E0 JUMPI DUP6 DUP2 ADD DUP4 ADD MLOAD DUP6 DUP3 ADD PUSH1 0x40 ADD MSTORE DUP3 ADD PUSH2 0x6C4 JUMP JUMPDEST DUP2 DUP2 GT ISZERO PUSH2 0x6F2 JUMPI PUSH1 0x0 PUSH1 0x40 DUP4 DUP8 ADD ADD MSTORE JUMPDEST POP PUSH1 0x1F ADD PUSH1 0x1F NOT AND SWAP3 SWAP1 SWAP3 ADD PUSH1 0x40 ADD SWAP4 SWAP3 POP POP POP JUMP JUMPDEST DUP1 CALLDATALOAD PUSH1 0x1 PUSH1 0x1 PUSH1 0xA0 SHL SUB DUP2 AND DUP2 EQ PUSH2 0x71F JUMPI PUSH1 0x0 DUP1 REVERT JUMPDEST SWAP2 SWAP1 POP JUMP JUMPDEST PUSH1 0x0 DUP1 PUSH1 0x40 DUP4 DUP6 SUB SLT ISZERO PUSH2 0x737 JUMPI PUSH1 0x0 DUP1 REVERT JUMPDEST PUSH2 0x740 DUP4 PUSH2 0x708 JUMP JUMPDEST SWAP5 PUSH1 0x20 SWAP4 SWAP1 SWAP4 ADD CALLDATALOAD SWAP4 POP POP POP JUMP JUMPDEST PUSH1 0x0 DUP1 PUSH1 0x0 PUSH1 0x60 DUP5 DUP7 SUB SLT ISZERO PUSH2 0x763 JUMPI PUSH1 0x0 DUP1 REVERT JUMPDEST PUSH2 0x76C DUP5 PUSH2 0x708 JUMP JUMPDEST SWAP3 POP PUSH2 0x77A PUSH1 0x20 DUP6 ADD PUSH2 0x708 JUMP JUMPDEST SWAP2 POP PUSH1 0x40 DUP5 ADD CALLDATALOAD SWAP1 POP SWAP3 POP SWAP3 POP SWAP3 JUMP JUMPDEST PUSH1 0x0 PUSH1 0x20 DUP3 DUP5 SUB SLT ISZERO PUSH2 0x79C JUMPI PUSH1 0x0 DUP1 REVERT JUMPDEST PUSH2 0x7A5 DUP3 PUSH2 0x708 JUMP JUMPDEST SWAP4 SWAP3 POP POP POP JUMP JUMPDEST PUSH1 0x0 DUP1 PUSH1 0x40 DUP4 DUP6 SUB SLT ISZERO PUSH2 0x7BF JUMPI PUSH1 0x0 DUP1 REVERT JUMPDEST PUSH2 0x7C8 DUP4 PUSH2 0x708 JUMP JUMPDEST SWAP2 POP PUSH2 0x7D6 PUSH1 0x20 DUP5 ADD PUSH2 0x708 JUMP JUMPDEST SWAP1 POP SWAP3 POP SWAP3 SWAP1 POP JUMP JUMPDEST PUSH4 0x4E487B71 PUSH1 0xE0 SHL PUSH1 0x0 MSTORE PUSH1 0x11 PUSH1 0x4 MSTORE PUSH1 0x24 PUSH1 0x0 REVERT JUMPDEST PUSH1 0x0 DUP2 PUSH1 0x0 NOT DIV DUP4 GT DUP3 ISZERO ISZERO AND ISZERO PUSH2 0x80F JUMPI PUSH2 0x80F PUSH2 0x7DF JUMP JUMPDEST POP MUL SWAP1 JUMP JUMPDEST PUSH1 0x0 DUP3 PUSH2 0x831 JUMPI PUSH4 0x4E487B71 PUSH1 0xE0 SHL PUSH1 0x0 MSTORE PUSH1 0x12 PUSH1 0x4 MSTORE PUSH1 0x24 PUSH1 0x0 REVERT JUMPDEST POP DIV SWAP1 JUMP JUMPDEST PUSH1 0x0 DUP3 NOT DUP3 GT ISZERO PUSH2 0x849 JUMPI PUSH2 0x849 PUSH2 0x7DF JUMP JUMPDEST POP ADD SWAP1 JUMP JUMPDEST PUSH1 0x0 DUP3 DUP3 LT ISZERO PUSH2 0x860 JUMPI PUSH2 0x860 PUSH2 0x7DF JUMP JUMPDEST POP SUB SWAP1 JUMP INVALID LOG2 PUSH5 0x6970667358 0x22 SLT KECCAK256 DUP15 0xAA SIGNEXTEND BASEFEE DUP15 DUP15 PUSH19 0xC06E7D5B1876A0E96269D657174485817313C6 SHL 0x25 0xA5 0xCE 0xD3 XOR PUSH5 0x736F6C6343 STOP ADDMOD SIGNEXTEND STOP CALLER ",
  "sha1": "376418020269bb7d2c1ce5b0b4ae8cbff2da408f",
  "source": "pragma solidity 0.8.11;\n// SPDX-License-Identifier: MIT\n\n/// Implements [EIP20](https://eips.ethereum.org/EIPS/eip-20).\n/// Not safe! Has bugs on purpose.\n/// Does _not_ implement (decrease|increase)Allowance.\ncontract Token {\n    /*\n        ___ _        _                      _      _    _        \n        / __| |_ __ _| |_ ___  __ ____ _ _ _(_)__ _| |__| |___ ___\n        \\__ \\  _/ _` |  _/ -_) \\ V / _` | '_| / _` | '_ \\ / -_|_-<\n        |___/\\__\\__,_|\\__\\___|  \\_/\\__,_|_| |_\\__,_|_.__/_\\___/__/\n    */\n    // region immutable\n    string public constant name = \"EthPrague\";\n    string public constant symbol = \"ETHPRG\";\n    uint8 public constant decimals = 18;\n    uint256 public constant PRICE = 1e20;\n    uint256 public constant PRICE_MULTIPLIER = 1e18;\n    address payable public immutable owner; // = msg.sender (deployer).\n    // endregion immutable\n\n    // region non-constant state variables\n    uint256 public totalSupply; // = 0;\n    mapping(address => uint256) public balances; // = collections.defaultdict(int);\n    mapping(address => mapping(address => uint256)) public allowances; // = defaultdict(lambda: defaultdict(int));\n    // endregion non-constant\n\n    /*\n        ___             _      \n        | __|_ _____ _ _| |_ ___\n        | _|\\ V / -_) ' \\  _(_-<\n        |___|\\_/\\___|_||_\\__/__/\n    */\n    event Approval(address indexed owner, address indexed spender, uint256 amount);\n    event Transfer(address indexed from, address indexed to, uint256 amount);\n    event Withdrawal(address indexed caller, address indexed recipient, uint256 value);\n\n    /*\n        ___      _    _ _    _                               _ _    _        __              _   _             \n        | _ \\_  _| |__| (_)__| |_  _ ___ __ _ __ __ ___ _____(_) |__| |___   / _|_  _ _ _  __| |_(_)___ _ _  ___\n        |  _/ || | '_ \\ | / _| | || |___/ _` / _/ _/ -_|_-<_-< | '_ \\ / -_) |  _| || | ' \\/ _|  _| / _ \\ ' \\(_-<\n        |_|  \\_,_|_.__/_|_\\__|_|\\_, |   \\__,_\\__\\__\\___/__/__/_|_.__/_\\___| |_|  \\_,_|_||_\\__|\\__|_\\___/_||_/__/\n                                |__/                                                                            \n    */\n\n    constructor() {\n        owner = payable(msg.sender);\n    }\n\n    function balanceOf(address usr) public view returns (uint256) {\n        return balances[usr];\n    }\n\n    function approve(address spender, uint256 amount) public returns (bool) {\n        allowances[msg.sender][spender] = amount;\n        emit Approval(\n            /* owner = */ msg.sender,\n            /* spender = */ spender,\n            /* amount = */ amount\n        );\n        return true;\n    }\n\n    function transfer(address to, uint256 amount) public returns (bool) {\n        balances[msg.sender] -= amount;\n        balances[to] += amount;\n\n        _emit_transfer(\n            /* from = */ msg.sender,\n            /* to = */ to,\n            /* amount = */ amount\n        );\n\n        return true;\n    }\n\n    function transferFrom(\n        address from,\n        address to,\n        uint256 amount\n    ) public returns (bool) {\n        // region correct\n        // balances[from] -= amount;\n        // balances[to] += amount;\n        // endregion correct\n\n        // region unsafe\n        uint from_post_amount = balances[from] - amount;\n        uint to_post_amount = balances[to] + amount;\n        balances[from] = from_post_amount;\n        balances[to] = to_post_amount;\n        // endregion unsafe\n\n        allowances[from][msg.sender] -= amount;\n\n        _emit_transfer(\n            /* from = */ from,\n            /* to = */ to, \n            /* amount = */ amount\n        );\n\n        return true;\n    }\n\n    function mint() payable public returns (uint256 amount) {\n        uint value = msg.value;\n        amount = value * PRICE / PRICE_MULTIPLIER;\n        balances[msg.sender] += amount; /* <-- this is a bug! */\n        totalSupply += amount;\n        _emit_transfer(\n            /* from = */ address(0),\n            /* to = */ msg.sender,\n            /* amount = */ amount\n        );\n    }\n\n    /*\n        _  _                       _    _ _    _                            _ _    _        __              _   _             \n        | \\| |___ _ _ ___ _ __ _  _| |__| (_)__| |_  _ ___ __ _ __ __ ___ __(_) |__| |___   / _|_  _ _ _  __| |_(_)___ _ _  ___\n        | .` / _ \\ ' \\___| '_ \\ || | '_ \\ | / _| | || |___/ _` / _/ _/ -_|_-< | '_ \\ / -_) |  _| || | ' \\/ _|  _| / _ \\ ' \\(_-<\n        |_|\\_\\___/_||_|  | .__/\\_,_|_.__/_|_\\__|_|\\_, |   \\__,_\\__\\__\\___/__/_|_.__/_\\___| |_|  \\_,_|_||_\\__|\\__|_\\___/_||_/__/\n                        |_|                      |__/                                                                         \n    */\n    function withdraw() public {\n        require(msg.sender == owner); \n        uint value = address(this).balance;\n        owner.transfer(\n            /* value = */ value\n        ); /* <-- this is a bug! */\n        emit Withdrawal(\n            /* caller = */ msg.sender,\n            /* recipient */ owner,\n            /* value = */ value\n        );\n    }\n\n    /*\n        ___     _                     _    __              _   _             \n        |_ _|_ _| |_ ___ _ _ _ _  __ _| |  / _|_  _ _ _  __| |_(_)___ _ _  ___\n        | || ' \\  _/ -_) '_| ' \\/ _` | | |  _| || | ' \\/ _|  _| / _ \\ ' \\(_-<\n        |___|_||_\\__\\___|_| |_||_\\__,_|_| |_|  \\_,_|_||_\\__|\\__|_\\___/_||_/__/\n    */\n    function _emit_transfer(\n        address from,\n        address to,\n        uint256 amount\n    ) internal {\n        emit Transfer(\n            /* from = */ from,\n            /* to = */ to,\n            /* amount = */ amount\n        );\n    }\n}\n",
  "sourcePath": "contracts/Token.sol",
  "type": "contract"
}