{
  "abi": [
    {
      "inputs": [
        {
          "internalType": "contract Token",
          "name": "_token0",
          "type": "address"
        },
        {
          "internalType": "contract Token",
          "name": "_token1",
          "type": "address"
        }
      ],
      "stateMutability": "nonpayable",
      "type": "constructor"
    },
    {
      "inputs": [
        {
          "internalType": "uint256",
          "name": "x",
          "type": "uint256"
        },
        {
          "internalType": "uint256",
          "name": "y",
          "type": "uint256"
        },
        {
          "internalType": "uint256",
          "name": "deltaX",
          "type": "uint256"
        }
      ],
      "name": "getDeltaY",
      "outputs": [
        {
          "internalType": "uint256",
          "name": "deltaY",
          "type": "uint256"
        }
      ],
      "stateMutability": "pure",
      "type": "function"
    },
    {
      "inputs": [
        {
          "internalType": "uint256",
          "name": "amountFromUser",
          "type": "uint256"
        },
        {
          "internalType": "bool",
          "name": "token1ForUser",
          "type": "bool"
        }
      ],
      "name": "swap",
      "outputs": [],
      "stateMutability": "nonpayable",
      "type": "function"
    },
    {
      "inputs": [],
      "name": "token0",
      "outputs": [
        {
          "internalType": "contract Token",
          "name": "",
          "type": "address"
        }
      ],
      "stateMutability": "view",
      "type": "function"
    },
    {
      "inputs": [],
      "name": "token1",
      "outputs": [
        {
          "internalType": "contract Token",
          "name": "",
          "type": "address"
        }
      ],
      "stateMutability": "view",
      "type": "function"
    }
  ],
  "bytecode": "60c060405234801561001057600080fd5b506040516105ba3803806105ba83398101604081905261002f91610062565b6001600160a01b039182166080521660a052610095565b80516001600160a01b038116811461005d57600080fd5b919050565b6000806040838503121561007557600080fd5b61007e83610046565b915061008c60208401610046565b90509250929050565b60805160a0516104e76100d36000396000818160d001528181610121015261014c01526000818160560152818160fb015261017201526104e76000f3fe608060405234801561001057600080fd5b506004361061004c5760003560e01c80630dfe1681146100515780632aea66051461009557806379317171146100aa578063d21220a7146100cb575b600080fd5b6100787f000000000000000000000000000000000000000000000000000000000000000081565b6040516001600160a01b0390911681526020015b60405180910390f35b6100a86100a33660046103a9565b6100f2565b005b6100bd6100b83660046103d9565b610367565b60405190815260200161008c565b6100787f000000000000000000000000000000000000000000000000000000000000000081565b60008161011f577f0000000000000000000000000000000000000000000000000000000000000000610141565b7f00000000000000000000000000000000000000000000000000000000000000005b9050600082610170577f0000000000000000000000000000000000000000000000000000000000000000610192565b7f00000000000000000000000000000000000000000000000000000000000000005b6040516370a0823160e01b8152306004820152909150600090610272906001600160a01b038416906370a0823190602401602060405180830381865afa1580156101e0573d6000803e3d6000fd5b505050506040513d601f19601f820116820180604052508101906102049190610405565b6040516370a0823160e01b81523060048201526001600160a01b038616906370a0823190602401602060405180830381865afa158015610248573d6000803e3d6000fd5b505050506040513d601f19601f8201168201806040525081019061026c9190610405565b87610367565b6040516323b872dd60e01b8152336004820152306024820152604481018790529091506001600160a01b038316906323b872dd906064016020604051808303816000875af11580156102c8573d6000803e3d6000fd5b505050506040513d601f19601f820116820180604052508101906102ec919061041e565b5060405163a9059cbb60e01b81526001600160a01b03841660048201819052602482018390529063a9059cbb906044016020604051808303816000875af115801561033b573d6000803e3d6000fd5b505050506040513d601f19601f8201168201806040525081019061035f919061041e565b505050505050565b6000806103748385610458565b905060006103828487610477565b905061038e818361048f565b9695505050505050565b80151581146103a657600080fd5b50565b600080604083850312156103bc57600080fd5b8235915060208301356103ce81610398565b809150509250929050565b6000806000606084860312156103ee57600080fd5b505081359360208301359350604090920135919050565b60006020828403121561041757600080fd5b5051919050565b60006020828403121561043057600080fd5b815161043b81610398565b9392505050565b634e487b7160e01b600052601160045260246000fd5b600081600019048311821515161561047257610472610442565b500290565b6000821982111561048a5761048a610442565b500190565b6000826104ac57634e487b7160e01b600052601260045260246000fd5b50049056fea2646970667358221220cfdf300cace0e12d2410ae51917abd7322f9615702835df4ada0b77a7a58b8d564736f6c634300080b0033",
  "bytecodeSha1": "3a342af17f489b0b40659af6b8ed51fcf2a31553",
  "compiler": {
    "evm_version": "istanbul",
    "optimizer": {
      "enabled": true,
      "runs": 200
    },
    "version": "0.8.11+commit.d7f03943"
  },
  "contractName": "Amm",
  "language": "Solidity",
  "natspec": {
    "kind": "dev",
    "methods": {
      "getDeltaY(uint256,uint256,uint256)": {
        "notice": "We have: Δy = (-yΔx)/(x+Δx) For full derivation, see ../docs/getDeltaY/result.svg."
      }
    },
    "version": 1
  },
  "opcodes": "PUSH1 0x80 PUSH1 0x40 MSTORE CALLVALUE DUP1 ISZERO PUSH2 0x10 JUMPI PUSH1 0x0 DUP1 REVERT JUMPDEST POP PUSH1 0x4 CALLDATASIZE LT PUSH2 0x4C JUMPI PUSH1 0x0 CALLDATALOAD PUSH1 0xE0 SHR DUP1 PUSH4 0xDFE1681 EQ PUSH2 0x51 JUMPI DUP1 PUSH4 0x2AEA6605 EQ PUSH2 0x95 JUMPI DUP1 PUSH4 0x79317171 EQ PUSH2 0xAA JUMPI DUP1 PUSH4 0xD21220A7 EQ PUSH2 0xCB JUMPI JUMPDEST PUSH1 0x0 DUP1 REVERT JUMPDEST PUSH2 0x78 PUSH32 0x0 DUP2 JUMP JUMPDEST PUSH1 0x40 MLOAD PUSH1 0x1 PUSH1 0x1 PUSH1 0xA0 SHL SUB SWAP1 SWAP2 AND DUP2 MSTORE PUSH1 0x20 ADD JUMPDEST PUSH1 0x40 MLOAD DUP1 SWAP2 SUB SWAP1 RETURN JUMPDEST PUSH2 0xA8 PUSH2 0xA3 CALLDATASIZE PUSH1 0x4 PUSH2 0x3A9 JUMP JUMPDEST PUSH2 0xF2 JUMP JUMPDEST STOP JUMPDEST PUSH2 0xBD PUSH2 0xB8 CALLDATASIZE PUSH1 0x4 PUSH2 0x3D9 JUMP JUMPDEST PUSH2 0x367 JUMP JUMPDEST PUSH1 0x40 MLOAD SWAP1 DUP2 MSTORE PUSH1 0x20 ADD PUSH2 0x8C JUMP JUMPDEST PUSH2 0x78 PUSH32 0x0 DUP2 JUMP JUMPDEST PUSH1 0x0 DUP2 PUSH2 0x11F JUMPI PUSH32 0x0 PUSH2 0x141 JUMP JUMPDEST PUSH32 0x0 JUMPDEST SWAP1 POP PUSH1 0x0 DUP3 PUSH2 0x170 JUMPI PUSH32 0x0 PUSH2 0x192 JUMP JUMPDEST PUSH32 0x0 JUMPDEST PUSH1 0x40 MLOAD PUSH4 0x70A08231 PUSH1 0xE0 SHL DUP2 MSTORE ADDRESS PUSH1 0x4 DUP3 ADD MSTORE SWAP1 SWAP2 POP PUSH1 0x0 SWAP1 PUSH2 0x272 SWAP1 PUSH1 0x1 PUSH1 0x1 PUSH1 0xA0 SHL SUB DUP5 AND SWAP1 PUSH4 0x70A08231 SWAP1 PUSH1 0x24 ADD PUSH1 0x20 PUSH1 0x40 MLOAD DUP1 DUP4 SUB DUP2 DUP7 GAS STATICCALL ISZERO DUP1 ISZERO PUSH2 0x1E0 JUMPI RETURNDATASIZE PUSH1 0x0 DUP1 RETURNDATACOPY RETURNDATASIZE PUSH1 0x0 REVERT JUMPDEST POP POP POP POP PUSH1 0x40 MLOAD RETURNDATASIZE PUSH1 0x1F NOT PUSH1 0x1F DUP3 ADD AND DUP3 ADD DUP1 PUSH1 0x40 MSTORE POP DUP2 ADD SWAP1 PUSH2 0x204 SWAP2 SWAP1 PUSH2 0x405 JUMP JUMPDEST PUSH1 0x40 MLOAD PUSH4 0x70A08231 PUSH1 0xE0 SHL DUP2 MSTORE ADDRESS PUSH1 0x4 DUP3 ADD MSTORE PUSH1 0x1 PUSH1 0x1 PUSH1 0xA0 SHL SUB DUP7 AND SWAP1 PUSH4 0x70A08231 SWAP1 PUSH1 0x24 ADD PUSH1 0x20 PUSH1 0x40 MLOAD DUP1 DUP4 SUB DUP2 DUP7 GAS STATICCALL ISZERO DUP1 ISZERO PUSH2 0x248 JUMPI RETURNDATASIZE PUSH1 0x0 DUP1 RETURNDATACOPY RETURNDATASIZE PUSH1 0x0 REVERT JUMPDEST POP POP POP POP PUSH1 0x40 MLOAD RETURNDATASIZE PUSH1 0x1F NOT PUSH1 0x1F DUP3 ADD AND DUP3 ADD DUP1 PUSH1 0x40 MSTORE POP DUP2 ADD SWAP1 PUSH2 0x26C SWAP2 SWAP1 PUSH2 0x405 JUMP JUMPDEST DUP8 PUSH2 0x367 JUMP JUMPDEST PUSH1 0x40 MLOAD PUSH4 0x23B872DD PUSH1 0xE0 SHL DUP2 MSTORE CALLER PUSH1 0x4 DUP3 ADD MSTORE ADDRESS PUSH1 0x24 DUP3 ADD MSTORE PUSH1 0x44 DUP2 ADD DUP8 SWAP1 MSTORE SWAP1 SWAP2 POP PUSH1 0x1 PUSH1 0x1 PUSH1 0xA0 SHL SUB DUP4 AND SWAP1 PUSH4 0x23B872DD SWAP1 PUSH1 0x64 ADD PUSH1 0x20 PUSH1 0x40 MLOAD DUP1 DUP4 SUB DUP2 PUSH1 0x0 DUP8 GAS CALL ISZERO DUP1 ISZERO PUSH2 0x2C8 JUMPI RETURNDATASIZE PUSH1 0x0 DUP1 RETURNDATACOPY RETURNDATASIZE PUSH1 0x0 REVERT JUMPDEST POP POP POP POP PUSH1 0x40 MLOAD RETURNDATASIZE PUSH1 0x1F NOT PUSH1 0x1F DUP3 ADD AND DUP3 ADD DUP1 PUSH1 0x40 MSTORE POP DUP2 ADD SWAP1 PUSH2 0x2EC SWAP2 SWAP1 PUSH2 0x41E JUMP JUMPDEST POP PUSH1 0x40 MLOAD PUSH4 0xA9059CBB PUSH1 0xE0 SHL DUP2 MSTORE PUSH1 0x1 PUSH1 0x1 PUSH1 0xA0 SHL SUB DUP5 AND PUSH1 0x4 DUP3 ADD DUP2 SWAP1 MSTORE PUSH1 0x24 DUP3 ADD DUP4 SWAP1 MSTORE SWAP1 PUSH4 0xA9059CBB SWAP1 PUSH1 0x44 ADD PUSH1 0x20 PUSH1 0x40 MLOAD DUP1 DUP4 SUB DUP2 PUSH1 0x0 DUP8 GAS CALL ISZERO DUP1 ISZERO PUSH2 0x33B JUMPI RETURNDATASIZE PUSH1 0x0 DUP1 RETURNDATACOPY RETURNDATASIZE PUSH1 0x0 REVERT JUMPDEST POP POP POP POP PUSH1 0x40 MLOAD RETURNDATASIZE PUSH1 0x1F NOT PUSH1 0x1F DUP3 ADD AND DUP3 ADD DUP1 PUSH1 0x40 MSTORE POP DUP2 ADD SWAP1 PUSH2 0x35F SWAP2 SWAP1 PUSH2 0x41E JUMP JUMPDEST POP POP POP POP POP POP JUMP JUMPDEST PUSH1 0x0 DUP1 PUSH2 0x374 DUP4 DUP6 PUSH2 0x458 JUMP JUMPDEST SWAP1 POP PUSH1 0x0 PUSH2 0x382 DUP5 DUP8 PUSH2 0x477 JUMP JUMPDEST SWAP1 POP PUSH2 0x38E DUP2 DUP4 PUSH2 0x48F JUMP JUMPDEST SWAP7 SWAP6 POP POP POP POP POP POP JUMP JUMPDEST DUP1 ISZERO ISZERO DUP2 EQ PUSH2 0x3A6 JUMPI PUSH1 0x0 DUP1 REVERT JUMPDEST POP JUMP JUMPDEST PUSH1 0x0 DUP1 PUSH1 0x40 DUP4 DUP6 SUB SLT ISZERO PUSH2 0x3BC JUMPI PUSH1 0x0 DUP1 REVERT JUMPDEST DUP3 CALLDATALOAD SWAP2 POP PUSH1 0x20 DUP4 ADD CALLDATALOAD PUSH2 0x3CE DUP2 PUSH2 0x398 JUMP JUMPDEST DUP1 SWAP2 POP POP SWAP3 POP SWAP3 SWAP1 POP JUMP JUMPDEST PUSH1 0x0 DUP1 PUSH1 0x0 PUSH1 0x60 DUP5 DUP7 SUB SLT ISZERO PUSH2 0x3EE JUMPI PUSH1 0x0 DUP1 REVERT JUMPDEST POP POP DUP2 CALLDATALOAD SWAP4 PUSH1 0x20 DUP4 ADD CALLDATALOAD SWAP4 POP PUSH1 0x40 SWAP1 SWAP3 ADD CALLDATALOAD SWAP2 SWAP1 POP JUMP JUMPDEST PUSH1 0x0 PUSH1 0x20 DUP3 DUP5 SUB SLT ISZERO PUSH2 0x417 JUMPI PUSH1 0x0 DUP1 REVERT JUMPDEST POP MLOAD SWAP2 SWAP1 POP JUMP JUMPDEST PUSH1 0x0 PUSH1 0x20 DUP3 DUP5 SUB SLT ISZERO PUSH2 0x430 JUMPI PUSH1 0x0 DUP1 REVERT JUMPDEST DUP2 MLOAD PUSH2 0x43B DUP2 PUSH2 0x398 JUMP JUMPDEST SWAP4 SWAP3 POP POP POP JUMP JUMPDEST PUSH4 0x4E487B71 PUSH1 0xE0 SHL PUSH1 0x0 MSTORE PUSH1 0x11 PUSH1 0x4 MSTORE PUSH1 0x24 PUSH1 0x0 REVERT JUMPDEST PUSH1 0x0 DUP2 PUSH1 0x0 NOT DIV DUP4 GT DUP3 ISZERO ISZERO AND ISZERO PUSH2 0x472 JUMPI PUSH2 0x472 PUSH2 0x442 JUMP JUMPDEST POP MUL SWAP1 JUMP JUMPDEST PUSH1 0x0 DUP3 NOT DUP3 GT ISZERO PUSH2 0x48A JUMPI PUSH2 0x48A PUSH2 0x442 JUMP JUMPDEST POP ADD SWAP1 JUMP JUMPDEST PUSH1 0x0 DUP3 PUSH2 0x4AC JUMPI PUSH4 0x4E487B71 PUSH1 0xE0 SHL PUSH1 0x0 MSTORE PUSH1 0x12 PUSH1 0x4 MSTORE PUSH1 0x24 PUSH1 0x0 REVERT JUMPDEST POP DIV SWAP1 JUMP INVALID LOG2 PUSH5 0x6970667358 0x22 SLT KECCAK256 0xCF 0xDF ADDRESS 0xC 0xAC 0xE0 0xE1 0x2D 0x24 LT 0xAE MLOAD SWAP2 PUSH27 0xBD7322F9615702835DF4ADA0B77A7A58B8D564736F6C634300080B STOP CALLER ",
  "sha1": "86b097b852afbaec606cdb48e83bf69c9343558c",
  "source": "pragma solidity 0.8.11;\n// SPDX-License-Identifier: MIT\n\n/// @dev: Just using Token for simplicity\nimport {Token} from \"./Token.sol\";\n\ncontract Amm {\n    /*\n    ___ _        _                      _      _    _        \n    / __| |_ __ _| |_ ___  __ ____ _ _ _(_)__ _| |__| |___ ___\n    \\__ \\  _/ _` |  _/ -_) \\ V / _` | '_| / _` | '_ \\ / -_|_-<\n    |___/\\__\\__,_|\\__\\___|  \\_/\\__,_|_| |_\\__,_|_.__/_\\___/__/\n    */\n    Token public immutable token0; // = _token0;\n    Token public immutable token1; // = _token1;\n\n    constructor(\n        Token _token0,\n        Token _token1\n    ) {\n        token0 = _token0;\n        token1 = _token1;\n    }\n\n    /*\n    ___      _    _ _       __              _   _             \n    | _ \\_  _| |__| (_)__   / _|_  _ _ _  __| |_(_)___ _ _  ___\n    |  _/ || | '_ \\ | / _| |  _| || | ' \\/ _|  _| / _ \\ ' \\(_-<\n    |_|  \\_,_|_.__/_|_\\__| |_|  \\_,_|_||_\\__|\\__|_\\___/_||_/__/\n    */\n    function swap(\n        uint256 amountFromUser,\n        bool token1ForUser\n    ) public {\n        // Checks\n        Token token_to_user   = token1ForUser ? token1 : token0;\n        Token token_from_user = token1ForUser ? token0 : token1;\n        uint amount_to_user   = getDeltaY(\n            /*      x = */ token_from_user.balanceOf(address(this)),\n            /*      y = */ token_to_user  .balanceOf(address(this)),\n            /* deltaX = */ amountFromUser\n        );\n        // Interactions\n        token_from_user.transferFrom(\n            /*   from = */ msg.sender,\n            /*     to = */ address(this),\n            /* amount = */ amountFromUser\n        );\n        token_to_user.transfer(\n            /*     to = */ address(token_to_user),\n            /* amount = */ amount_to_user\n        );\n    }\n\n    /// We have:\n    /// Δy = (-yΔx)/(x+Δx)\n    /// For full derivation, see ../docs/getDeltaY/result.svg.\n    function getDeltaY(\n        uint x,\n        uint y,\n        uint deltaX\n    ) public pure returns (uint256 deltaY) {\n        uint num = y * deltaX;\n        uint den = x + deltaX;\n        deltaY = num / den;\n    }\n}",
  "sourcePath": "contracts/Amm.sol",
  "type": "contract"
}